:020000040800F2
:10000000800C00200D020008B9100008BB10000889
:10001000BF100008C3100008C7100008000000004F
:10002000000000000000000000000000CB100008ED
:10003000CD10000800000000CF100008D11000080B
:1000400027020008270200082702000827020008EC
:1000500027020008270200082702000827020008DC
:1000600027020008270200082702000827020008CC
:1000700027020008270200082702000827020008BC
:1000800027020008270200082702000827020008AC
:10009000270200082702000827020008270200089C
:1000A000270200082702000827020008270200088C
:1000B000270200081B10000827020008270200087A
:1000C000270200082702000827020008270200086C
:1000D000270200082702000827020008270200085C
:1000E000270200082702000827020008270200084C
:1000F000270200082702000827020008270200083C
:10010000270200082702000827020008270200082B
:10011000270200082702000827020008270200081B
:10012000270200082702000827020008270200080B
:1001300000F002F800F05AF80AA090E8000C82449F
:100140008344AAF10107DA4501D100F04FF8AFF27C
:10015000090EBAE80F0013F0010F18BFFB1A43F0A5
:1001600001031847C82A0000E82A00000A444FF09B
:10017000000C10F8013B13F0070408BF10F8014B06
:100180001D1108BF10F8015B641E05D010F8016B4B
:10019000641E01F8016BF9D113F0080F1EBF10F8AF
:1001A000014BAD1C0C1B09D16D1E58BF01F801CBD2
:1001B000FAD505E014F8016B01F8016B6D1EF9D555
:1001C0009142D6D37047000000230024002500266A
:1001D000103A28BF78C1FBD8520728BF30C148BFAA
:1001E0000B6070471FB51FBD10B510BD02F0E3FCDA
:1001F0001146FFF7F7FF00F0B3FE02F001FD03B474
:10020000FFF7F2FF03BC02F005FD0000094880473C
:1002100009480047FEE7FEE7FEE7FEE7FEE7FEE7E8
:10022000FEE7FEE7FEE7FEE704480549054A064B00
:1002300070470000B12A0008310100088006002044
:10024000800C002080080020800800204FF47A7184
:10025000484300BF0100A0F10100FBD1704700B589
:1002600087B0012140F2091001F0B8FA4FF40050B4
:10027000ADF8040003208DF8060018208DF8070063
:1002800001A9FD4800F0F4FF4FF48040ADF80400F0
:1002900003208DF8060018208DF8070001A9F64804
:1002A00000F0E6FF4FF40040ADF8040003208DF8A5
:1002B000060018208DF8070001A9EF4800F0D8FFCC
:1002C0000121880301F097FA0020ADF808004FF4EF
:1002D0008270ADF80A000020ADF80C000220ADF8E5
:1002E0000E000120ADF810004002ADF81200002011
:1002F000ADF81400ADF816000720ADF8180002A9FB
:10030000DE4801F0F9FA0121DC4801F09AFB4FF4D4
:100310008050ADF8040003208DF8060010208DF801
:10032000070001A9D44800F0A3FF2020ADF8040085
:1003300003208DF8060010208DF8070001A9CE4893
:1003400000F096FF4FF40040ADF8040003208DF854
:10035000060010208DF8070001A9C94800F088FFA9
:100360002021C54801F02FF84FF48051C24801F018
:100370002CF807B000BD10B5044600BF0221BF48ED
:1003800001F0E3FB0028F9D02146BC4801F08AFBCC
:1003900000BF0121B94801F0D8FB0028F9D0B748C7
:1003A00001F082FBC0B210BD10B504464FF400410D
:1003B000B34801F008F82046FFF7DDFF10BD10B587
:1003C00004464FF40041AE4800F0FDFFC4F307209F
:1003D000FFF7D1FFE0B2FFF7CEFF10BD10B5044626
:1003E0004FF40041A64800F0F0FF2046FFF7C3FF9E
:1003F00010BD70B504460D46E0B2FFF7EFFF28468A
:10040000FFF7DDFF70BD2DE9F04104460D461646AD
:100410001F462A20FFF7E2FFC4F30720FFF7C4FFBF
:10042000E0B2FFF7C1FFC6F30720FFF7BDFFF0B250
:10043000FFF7BAFF2B20FFF7D1FFC5F30720FFF727
:10044000B3FFE8B2FFF7B0FFC7F30720FFF7ACFF39
:10045000F8B2FFF7A9FF2C20FFF7C0FFBDE8F0813D
:1004600010B52021844800F0B0FF6420FFF7EEFEB5
:100470002021814800F0A7FF6420FFF7E7FECB2092
:10048000FFF7ACFF3920FFF78FFF2C20FFF78CFF21
:100490000020FFF789FF3420FFF786FF0220FFF7D7
:1004A00083FFCF20FFF79AFF0020FFF77DFFC120D9
:1004B000FFF77AFF3020FFF777FFE820FFF78EFF86
:1004C0008520FFF771FF0020FFF76EFF7820FFF710
:1004D0006BFFEA20FFF782FF0020FFF765FF002097
:1004E000FFF762FFED20FFF779FF6420FFF75CFF65
:1004F0000320FFF759FF1220FFF756FF8120FFF777
:1005000053FFF720FFF76AFF2020FFF74DFFC020C1
:10051000FFF764FF2320FFF747FFC120FFF75EFFCF
:100520001020FFF741FFC520FFF758FF3E20FFF7DF
:100530003BFF2820FFF738FFC720FFF74FFF86203B
:10054000FFF732FF3620FFF749FF4820FFF72CFF67
:100550003A20FFF743FF5520FFF726FFB120FFF7B2
:100560003DFF0020FFF720FF1820FFF71DFFB620FA
:10057000FFF734FF0820FFF717FF8220FFF714FF73
:100580002720FFF711FFF220FFF728FF0020FFF7D9
:100590000BFF2620FFF722FF0120FFF705FFE020D9
:1005A000FFF71CFF0F20FFF7FFFE3120FFF7FCFED7
:1005B0002B20FFF7F9FE0C20FFF7F6FE0E20FFF7C9
:1005C000F3FE0820FFF7F0FE4E20FFF7EDFEF120CE
:1005D000FFF7EAFE3720FFF7E7FE0720FFF7E4FE0C
:1005E0001020FFF7E1FE0320FFF7DEFE0E20FFF7ED
:1005F000DBFE0920FFF7D8FE0020FFF7D5FEE12043
:10060000FFF7ECFE0020FFF7CFFE0E20FFF7CCFE39
:100610001420FFF7C9FE0320FFF7C6FE1120FFF7E5
:10062000C3FE0720FFF7C0FE3120FFF7BDFEC1204B
:10063000FFF7BAFE4820FFF7B7FE0820FFF7B4FE29
:100640000F20FFF7B1FE0C20FFF7AEFE3120FFF7C1
:10065000ABFE3620FFF7A8FE0F20FFF7A5FE112006
:10066000FFF7BCFE7820FFF7F1FD2920FFF7B6FE6B
:100670002C20FFF7B3FE10BD000C014000380040F5
:10068000002001402DE9F0410446271204F0FF0844
:1006900040F23F13EF2200210846FFF7B4FE002589
:1006A0000EE0002607E03846FFF77EFE4046FFF7E3
:1006B0007BFE701C86B2B6F5A07FF4DB681C85B2A9
:1006C000F02DEEDBBDE8F08170B504460D462B46FB
:1006D000224629462046FFF796FEFE480088FFF78F
:1006E0006EFE70BD2DE9F04704460D4616461F46C6
:1006F000DDF820A03B46324629462046FFF783FE20
:10070000A8460EE0A14606E05046FFF758FE09F164
:1007100001001FFA80F9B145F6DD08F101001FFA6A
:1007200080F8B845EEDDBDE8F087F8B504460D4623
:10073000E84800886E1CB3B2661CB2B26E1EB1B23D
:10074000661E0090B0B2FFF7CDFFF8BD2DE9FF4F58
:1007500085B081468A460020049003900798A0EB5C
:1007600009050898A0EB0A06CDF80890CDF804A07A
:10077000002D01DD012705E00DB9002702E04FF053
:10078000FF376D42002E02DD4FF0010806E016B97A
:100790004FF0000802E04FF0FF387642B54201DD2D
:1007A0002C4600E034464FF0000B21E0019A91B254
:1007B000029A90B2FFF788FF0498284404900398A7
:1007C000304403900498A04205DD0498001B049077
:1007D0000298384402900398A04205DD0398001B5C
:1007E00003900198404401900BF101001FFA80FB37
:1007F000601C8345DADD09B0BDE8F08F2DE9F041DA
:1008000004460D4616461F462B46324629462046CC
:10081000FFF79CFF3B46224629462046FFF796FFFE
:100820003B46324639462046FFF790FF3B4632466C
:1008300029463046FFF78AFFBDE8F0812DE9F047F1
:1008400006460F469046002445460320A0EB480983
:1008500048E03A1B91B2721B90B2FFF735FF3A1B8A
:1008600091B2721990B2FFF72FFF7A1991B2321B31
:1008700090B2FFF729FF3A1B91B2721B90B2FFF7BB
:1008800023FF7A1B91B2321B90B2FFF71DFF3A197A
:1008900091B2721990B2FFF717FF7A1B91B2321919
:1008A00090B2FFF711FF7A1991B2321990B2FFF7A7
:1008B0000BFF3A1991B2721B90B2FFF705FF641C4F
:1008C000B9F1000F03DAA000801D814404E0601B31
:1008D00080000A3081446D1E7A1991B2321990B2AB
:1008E000FFF7F2FEAC42B4DDBDE8F0872DE9FF5F13
:1008F00005460F461646AA467648B0F800B0E02DE9
:1009000002DCB7F5987F01DDBDE8FF9FA6F120006E
:10091000C6B207F10F03EA1D39462846FFF773FDFB
:10092000039858BB002426E004EB06106A4911F82E
:1009300000904FF0000816E019F0010F03D0654851
:10094000A0F800B003E0654800886249088061486B
:100950000088FFF734FD4FEA6909681C85B208F189
:10096000010000F0FF08B8F1080FE5DB5546781CE0
:1009700087B2601CC4B2102CD6DB20E000241CE03F
:1009800004EB0610544911F800904FF000080FE0F6
:1009900019F0010F06D03A1991B205EB080290B296
:1009A000FFF792FE4FEA690908F1010000F0FF0825
:1009B000B8F1080FECDB601CC4B2102CE0DB45483A
:1009C000A0F800B000BF9FE710B50246012000E08C
:1009D00050430B00A1F10104E1B2F9D110BD2DE9A2
:1009E000F0470646894617461D464FF0000ABFB23B
:1009F00000242FE0281B401EC1B20A20FFF7E4FFAD
:100A0000B7FBF0F00A21B0FBF1F201FB1208BAF1DA
:100A1000000F11D1681EA0420EDDB8F1000F09D100
:100A2000082101FB046188B2002320224946FFF718
:100A30005DFF0DE04FF0010A08F13001CAB2082154
:100A400001FB046188B200234946FFF74FFF00BF56
:100A5000601CC4B2AC42CDDBBDE8F0872DE9F047A5
:100A60000646894617461D46002419E0281B401EED
:100A7000C1B20A20FFF7A8FFB7FBF0F00A21B0FBD4
:100A8000F1F201FB120808F13001CAB2082101FBA2
:100A9000046188B200234946FFF728FF601CC4B2F6
:100AA000AC42E3DBBDE8F08770B505460E46144660
:100AB0001CE0E02D03DD002506F1100086B2B6F53E
:100AC000987F02DD00200546064622780023314645
:100AD000284605E00200002004000020000000205D
:100AE000FFF704FF05F1080085B2641C2078002898
:100AF000DFD170BD00B587B00121142000F06EFE7B
:100B00000121080300F06AFE0121084600F066FE9C
:100B10002020ADF8040002208DF8060018208DF882
:100B2000070001A9FE4800F0A3FB4020ADF8040037
:100B300002208DF8060018208DF8070001A9F8485A
:100B400000F096FB8020ADF8040002208DF806002E
:100B500018208DF8070001A9F14800F089FB00205A
:100B6000ADF808004FF48270ADF80A000020ADF82F
:100B70000C00ADF80E00ADF810004FF40070ADF8A9
:100B800012001020ADF814000020ADF81600072068
:100B9000ADF8180002A9E34800F0AEFE0121E148DB
:100BA00000F04FFF1020ADF8040002208DF8060081
:100BB00010208DF8070001A9DB4800F059FB202028
:100BC000ADF8040002208DF8060004208DF807001F
:100BD00001A9D54800F04CFB1020ADF8040002201C
:100BE0008DF8060010208DF8070001A9CC4800F010
:100BF0003FFB1021CC4800F0E8FB1021C84800F072
:100C0000E4FB07B000BD10B5044600BF0221C54893
:100C100000F09BFF0028F9D02146C24800F042FFB7
:100C200000BF0121BF4800F090FF0028F9D0BD4867
:100C300000F03AFFC0B210BD2DE9F04107460D4665
:100C400016461021B84800F0C0FB3846FFF7DBFF1E
:100C50008046002405E0FF20FFF7D5FF2855601CE3
:100C6000C4B2B442F7DB1021AF4800F0ACFB404601
:100C7000BDE8F0812DE9F04107460C4615461021EC
:100C8000A94800F0A2FB3846FFF7BDFF80460026CA
:100C900005E014F8010BFFF7B6FF701CC6B2AE42B8
:100CA000F7DB1021A04800F08EFB4046BDE8F08144
:100CB0001CB59EA103C9CDE900010522694630207B
:100CC000FFF7D8FF052269461020FFF7B5FF002483
:100CD00006E01DF80400A52800D003E0601CC4B2A3
:100CE000052CF6DB00BF052C01D001201CBD002027
:100CF000FCE770B505460C4610218B4800F065FBFB
:100D00002846FFF780FF06462046FFF77CFF1021AC
:100D1000854800F058FB304670BD70B50446102180
:100D2000814800F052FB2046FFF76DFFFF20FFF7E0
:100D30006AFF054610217C4800F045FB284670BD3F
:100D400070B505461021764800F03FFB2022294669
:100D5000A020FFF78FFF1021714800F034FB00BF87
:100D60002021714800F015FB0028F9D10720FFF77A
:100D7000D4FF044621462720FFF7BBFF14F0100FD5
:100D800005D0FF21E120FFF7B4FF102070BD14F063
:100D9000200F01D02020F9E7FF20F7E770B50446C7
:100DA0000720FFF7BAFF054629462720FFF7A1FFD6
:100DB00015F0400F0AD0202221466120FFF73CFFAA
:100DC000FF21E220FFF795FF002070BD0120FCE726
:100DD00010B51021524800F0F8FA052255492A2092
:100DE000FFF748FF01212120FFF783FF0121222087
:100DF000FFF77FFF28212520FFF77BFF20213120EF
:100E0000FFF777FF0F212620FFF773FF0F21202028
:100E1000FFF76FFF1021424800F0D5FA10BD10B562
:100E200010213F4800F0D1FA052243493020FFF756
:100E300021FF05223F492A20FFF71CFF0121212025
:100E4000FFF757FF01212220FFF753FF1A2124202B
:100E5000FFF74FFF28212520FFF74BFF0F2126200A
:100E6000FFF747FF0E212020FFF743FF10212C48FA
:100E700000F0A9FA10BD08B50121080200F0AEFC8F
:100E80004FF48040ADF8000010208DF803000220E0
:100E90008DF802006946294800F0EAF90121402056
:100EA00000F09CFC0120ADF8000004208DF8030048
:100EB00002208DF802006946214800F0D9F908BDEA
:100EC0001FB50121022000F096FC1E4800F074FEC0
:100ED0004FF4FA60ADF8080048F69F40ADF8040002
:100EE0000020ADF80A00ADF806008DF80C0001A94D
:100EF000144800F035FF0121124801F053FD012292
:100F00001146104801F0A3FA01210E4801F084FABD
:100F10004FF4E06000F0DEF81D208DF8000013E0D3
:100F2000000801400030014000100140A5A5A5A522
:100F3000A5000000272C0008222C000800200140FA
:100F4000001801400004004001208DF8030000203B
:100F50008DF801008DF80200684600F0C0F81FBD52
:100F60008AB0FFF7ADFFFFF786FFFFF778F9FFF7CD
:100F700077FA4FF6FF70FFF785FB34A20021084691
:100F8000FFF792FDFFF7B6FD36A23C210020FFF7E8
:100F90008BFDFFF78DFE054601232A464C21C82014
:100FA000FFF71DFDFFF714FF4FF48041384800F0B4
:100FB0000AFA00BFFFF77CFE0028FBD14FF4804106
:100FC000334800F002FA27E00121324800F0E1F94D
:100FD00004462CB14FF480412D4800F0F6F904E0AE
:100FE0004FF480412A4800F0EEF901A8FFF7D6FE41
:100FF00078B94FF48041264800F0E5F926A2C821CF
:101000000020FFF751FD01AAD8210020FFF74CFD79
:1010100002E00A20FFF71AF9D6E710B501212448AB
:1010200001F0D4FC05232348902102685020FFF7EB
:10103000D6FC20480068401E1E490860084600682B
:10104000002801DA0A20086010BD0000546573749E
:10105000206F662054696D657220262032344C3032
:101060003100000032344C303120436865636B211D
:1010700020436865636B204461746120466F6C6C2B
:101080006F77696E673A28313D4661696C290000C7
:1010900000200140001801404461746120526563E2
:1010A0006976656420205C285E6F5E292F203A00F7
:1010B00000040040F4050020704700BFFEE700BFB9
:1010C000FEE700BFFEE700BFFEE7704770477047CE
:1010D0007047000031490143314A1160704770B5D3
:1010E000002100230F22C4780CB32D4C246804F493
:1010F000E064C4F5E064210AC1F10403CA40447805
:1011000004FA03F18478144021430901254C067840
:10111000A155047804F01F050124AC4005786D1139
:101120004FF0E02606EB8505C5F8004109E004789C
:1011300004F01F050124AC401B4D0678761145F8DC
:10114000264070BD194A0A400243154B1B1F1A6006
:10115000704739B1124A121D12680243104B1B1D11
:101160001A6006E00E4A121D126882430C4B1B1DCA
:101170001A607047042808D14FF0E021096941F056
:1011800004014FF0E022116107E04FF0E02109690E
:1011900021F004014FF0E022116170470000FA05D0
:1011A0000CED00E000E400E080E100E080FFFF1FC4
:1011B00010B50446CA48844208D10121042000F039
:1011C00027FB0021042000F023FB46E0C5488442B1
:1011D00008D10121082000F01BFB0021082000F0AD
:1011E00017FB3AE0C048844208D10121102000F0EA
:1011F0000FFB0021102000F00BFB2EE0BB488442C7
:1012000008D10121202000F003FB0021202000F064
:10121000FFFA22E0B648844208D10121402000F0C4
:10122000F7FA0021402000F0F3FA16E0B1488442BA
:1012300008D10121802000F0EBFA0021802000F08D
:10124000E7FA0AE0AC48844207D10121801500F09A
:10125000DFFA0021A01500F0DBFA10BD10B5012166
:10126000084600F0D5FA0021012000F0D1FA10BDA7
:101270002DE9F0410246002500260020002300242D
:10128000002791F803C00CF00F0591F803C01CF083
:10129000100F03D091F802C04CEA050591F800C088
:1012A000BCF1000F31D0146800202BE04FF0010C8E
:1012B0000CFA00F3B1F800C00CEA03069E4220D1FC
:1012C00083004FF00F0C0CFA03F7BC4305FA03FC44
:1012D0004CEA040491F803C0BCF1280F06D14FF08A
:1012E000010C0CFA00FCC2F814C00AE091F803C02B
:1012F000BCF1480F05D14FF0010C0CFA00FCC2F80C
:1013000010C0401C0828D1D31460B1F800C0BCF153
:10131000FF0F34DD546800202EE000F1080C4FF080
:10132000010808FA0CF3B1F800C00CEA03069E426B
:1013300021D183004FF00F0C0CFA03F7BC4305FAE0
:1013400003FC4CEA040491F803C0BCF1280F05D15A
:1013500000F1080C08FA0CF8C2F8148091F803C0E8
:10136000BCF1480F07D100F1080C4FF0010808FA52
:101370000CF8C2F81080401C0828CED35460BDE899
:10138000F0814FF6FF710180022181700421C1704C
:1013900070470246002093680B4201D0012000E014
:1013A000002070470146886880B2704702460020DE
:1013B000D3680B4201D0012000E0002070470146B5
:1013C000C86880B2704701617047416170470AB1D7
:1013D000016100E041617047C16070474FF48032A5
:1013E0000A43826181618261826982697047024633
:1013F0000020424B18684FF68073184040EA0210F4
:1014000008433E4B186070473D49C8617047F0B5CE
:101410000A46002300240021002500F00046B6F112
:10142000004F02D1354EF16901E0344E7168C0F3CE
:10143000034583B200F44016B6F5401F08D121F0F1
:1014400070612E4E766826F070662C4F7E6012E03A
:1014500000F48016B6F5801F06D1032606FA05F4BF
:10146000A14341F0706106E0460D360103FA06F62D
:10147000B14341F0706122B1460D360103FA06F620
:10148000314300F00046B6F1004F02D11B4EF1612E
:1014900001E01A4E7160F0BD30B500228B071C0FC1
:1014A0000F2303FA04F2154B08338C1053F8243041
:1014B0009343124C08348D1044F8253023468C1089
:1014C00053F824308C07240F00FA04F423430B4C08
:1014D00008348D1044F8253030BD0A490860704743
:1014E00000080140000C01400010014000140140C0
:1014F00000180140001C0140002001400000014094
:1015000000002042DC002042DD48006840F001007D
:10151000DB49086008464068DA490840D849486015
:1015200008460068D8490840D54908600846006860
:1015300020F4802008600846406820F4FE004860DF
:101540004FF41F0088607047CD49096821F480314D
:10155000CB4A11601146096821F480211160B0F571
:10156000803F03D0B0F5802F0ED106E0C449096852
:1015700041F48031C24A116007E0C149096841F471
:10158000A021BF4A116000E000BF00BF704710B546
:1015900001460022002300204A11012A02D1B84C42
:1015A000236806E0022A02D1B54C236A01E0B44C5C
:1015B000636A01F01F02012494401C4201D0012003
:1015C00000E0002010BD38B5002000900024002568
:1015D00000BF3120FFF7DBFF05460098401C00905C
:1015E0000098B0F5A06F01D0002DF2D03120FFF7A8
:1015F000CEFF08B1012400E00024204638BD01469A
:1016000000209F4A106820F0F80040EAC1001060F6
:1016100070479E490860704702460020984B586802
:1016200020F47C1042EA01031843954B5860704740
:1016300096490866704701460020914A506820F09C
:1016400003000843506070478D48406800F00C006C
:101650007047014600208A4A506820F0F000084395
:101660005060704701460020854A506820F4E060D1
:1016700008435060704701460020814A506820F4BA
:10168000605040EAC1005060704729B17C4A527AEC
:1016900002437B4B5A7204E0794A527A8243784B78
:1016A0005A7270477A490860704701460020744AB0
:1016B000506820F440400843506070470021754A4C
:1016C00011706F4A82F82010012802D0042808D136
:1016D00003E001216F4A117004E005216D4A117089
:1016E00000E000BF00BF70476B4908607047644965
:1016F000096A0143624A11627047674944390860C8
:10170000704730B500210022002400235C4D6D6835
:1017100005F00C0121B1042905D0082923D105E0E9
:101720005E4D056022E05D4D05601FE0544D6D6823
:1017300005F47012524D6D6805F48034022505EBF6
:1017400092421CB9564D554305600BE04C4D6D68F7
:1017500015F4003F03D0524D5543056002E04F4D54
:101760005543056002E04D4D056000BF00BF444D8C
:101770006D6805F0F00109094A4D6B5C0568DD40B4
:1017800045603F4D6D6805F4E061090A454D6B5CAD
:101790004568DD4085603A4D6D6805F46051C90AC1
:1017A000404D6B5C4568DD40C560354D6D6805F4A6
:1017B0004041890B3C4D6B5CC568B5FBF3F5056199
:1017C00030BD29B12E4A526902432D4B5A6104E0C3
:1017D0002B4A526982432A4B5A61704729B1284AE1
:1017E00092690243264B9A6104E0254A926982433A
:1017F000234B9A61704729B1214AD2690243204B99
:10180000DA6104E01E4AD26982431D4BDA617047F7
:1018100029B11B4AD2680243194BDA6004E0184A26
:10182000D2688243164BDA60704729B1144A1269B4
:101830000243134B1A6104E0114A12698243104BB0
:101840001A61704714494039086070470F49C864ED
:1018500070470B49C87170470948406A40F0807072
:1018600007494862704701460020054A92680A42CB
:1018700001D0012000E000207047014988727047C4
:10188000001002400000FFF8FFFFF6FE0000424299
:10189000D8004242201002408004424200127A00E6
:1018A00000093D00F80500200806002010B5044698
:1018B000BE48844208D101218014FFF7A9FF00210E
:1018C000A014FFF7A5FF16E0B948844208D1012112
:1018D0000014FFF7AAFF00212014FFF7A6FF0AE07B
:1018E000B448844207D10121C013FFF79EFF0021B5
:1018F000E013FFF79AFF10BD10B50022028802F432
:1019000041520B884C8823438C882343CC88234343
:101910000C8923434C8923438C892343CC8923435B
:101920001A430280838B4FF2FF74234083830B8A18
:10193000038210BD2DE9F04F85B005460C464FF0EF
:10194000000902274FF000084FF0010B0026B246B5
:10195000A88B4FF240010840A88302202884B5F8E4
:101960001C90A068022801D100BF38E0A08810B9FF
:101970004FF0010B01E04FF0020B8D48854200D182
:1019800000E000BF6846FFF7BCFEDDF800A0E0887D
:10199000B0F5007F0AD14FEA1A2000EB800040002A
:1019A000A168B0FBF1F0401D86B20BE04FEA4B108E
:1019B000BAFBF0F000EB80004000A168B0FBF1F052
:1019C000401D86B20A20B6FBF0F606F00108A6EB31
:1019D0000800C0F34F074FF6FF7000EA0828022FF7
:1019E00001DBFF2F02DD02274FF00008E08840EA0C
:1019F000080038432884A088A189084361880843E7
:101A00002188084340F4006040EA0909A5F81C90C9
:101A100005B0BDE8F08F0021018041808180C18048
:101A2000018141818181C1810721018270470021AB
:101A3000018041808180C1800221816000218181FB
:101A4000704721B1028842F04002028004E002881F
:101A50004FF6BF731A400280704721B1828B42F467
:101A60008062828304E0828B4FF6FF331A408283C8
:101A7000704730B5002400230C110125A540ABB2FE
:101A80001AB185881D43858002E085889D43858045
:101A900030BD1AB183880B43838002E083888B4377
:101AA0008380704781817047014688897047A1F51E
:101AB0007E42FF3A04D0028842F48072028004E041
:101AC00002884FF6FF631A400280704721B1828876
:101AD00042F00402828004E082884FF6FB731A40D1
:101AE0008280704702884FF2FF731A40028002889A
:101AF0000A4302807047018841F480510180704799
:101B000021B1028842F40052028004E002884DF6BE
:101B1000FF731A400280704702460020012901D05D
:101B2000108B00E0908A70470146088A7047B1F533
:101B3000804F04D1028842F48042028004E002888F
:101B40004BF6FF731A40028070470246002013894B
:101B50000B4201D0012000E000207047CA430281FF
:101B60007047F0B50246002000240023002501F054
:101B70000F070126BE40B4B20B1101269E40B3B23E
:101B8000968806EA03051689264202D00DB1012087
:101B900000E00020F0BD10B5002201F00F04012389
:101BA000A3409AB2D343038110BD0000003001402E
:101BB00000380040003C004010B50446FE48844216
:101BC00008D10121C014FFF723FE0021E014FFF724
:101BD0001FFEC4E0B4F1804F08D101210846FFF791
:101BE00024FE00210120FFF720FEB8E0F3488442E4
:101BF00008D101210220FFF718FE00210220FFF783
:101C000014FEACE0EE48844208D101210420FFF725
:101C10000CFE00210420FFF708FEA0E0E948844202
:101C200008D101210820FFF700FE00210820FFF75E
:101C3000FCFD94E0E448844208D101211020FFF724
:101C4000F4FD00211020FFF7F0FD88E0DF4884421A
:101C500008D101212020FFF7E8FD00212020FFF717
:101C6000E4FD7CE0DA48844208D101214014FFF70A
:101C7000CFFD00216014FFF7CBFD70E0D548844212
:101C800009D10121C804FFF7C3FD00214FF4002052
:101C9000FFF7BEFD63E0D048844209D10121080569
:101CA000FFF7B6FD00214FF48010FFF7B1FD56E0BD
:101CB000CA48844209D101214805FFF7A9FD002146
:101CC0004FF40010FFF7A4FD49E0C548844208D155
:101CD00001214020FFF7A9FD00214020FFF7A5FDCD
:101CE0003DE0C048844208D101218020FFF79DFDDE
:101CF00000218020FFF799FD31E0BB48844208D1E4
:101D000001218015FFF791FD0021A015FFF78DFD42
:101D100025E0B648844209D101210804FFF778FD87
:101D200000214FF48030FFF773FD18E0B048844283
:101D300009D101214804FFF76BFD00214FF4003069
:101D4000FFF766FD0BE0AB48844208D1012188040F
:101D5000FFF75EFD00214FF48020FFF759FD10BD15
:101D600000220288944B98420ED0994B98420BD097
:101D7000B0F1804F08D0914B984205D0904B9842DB
:101D800002D0904B984204D14FF68F731A404B8883
:101D90001A438D4B984207D08C4B984204D04FF693
:101DA000FF431A40CB881A4302808B8883850B88B7
:101DB0000385814B98420BD0854B984208D08B4BC2
:101DC000984205D08A4B984202D08A4B984201D162
:101DD0000B7A038601238382704770B500240022AA
:101DE0000023058C4FF6FE7635400584028C8388EF
:101DF000048B4FF68F752C40B51E2C400D882C435C
:101E0000751E2A400D892A434D882A436A4DA842EF
:101E10000BD06F4DA84208D0744DA84205D0744D28
:101E2000A84202D0734DA84213D14FF6F7752A404D
:101E30004D892A434FF6FB752A408D882A434FF679
:101E4000FF652B404FF6FF552B408D892B43CD89E5
:101E50002B4383800483CD888586028470BD70B552
:101E6000002400220023058C4FF6EF7635400584D0
:101E7000028C8388048B48F6FF752C404FF6FF4593
:101E80002C400D884FF6FF7606EA05252C434FF6C9
:101E9000DF752A400D8906EA05152A434D8806EAB2
:101EA00005152A43444DA84202D0494DA8421DD1F0
:101EB0004FF67F752A404D894FF6FF7606EA0515E5
:101EC0002A434FF6BF752A408D8806EA05152A4336
:101ED0004FF6FF352B404FF2FF752B408D8906EAF8
:101EE00085052B43CD8906EA85052B438380048332
:101EF000CD880587028470BD70B5002400220023C0
:101F0000058C4FF6FF6635400584028C8388848BF0
:101F10004FF68F752C404FF6FC752C400D882C43E6
:101F20004FF6FF552A400D894FF6FF7606EA052544
:101F30002A434D8806EA05252A431F4DA84202D0B0
:101F4000234DA8421DD14FF2FF752A404D894FF60F
:101F5000FF7606EA05252A434FF6FF352A408D888D
:101F600006EA05252A434EF6FF752B404DF6FF7510
:101F70002B408D8906EA05152B43CD8906EA051508
:101F80002B4383808483CD888587028470BD70B5A0
:101F9000002200230024058C4EF6FF763540058490
:101FA000038C8488828B48F6FF752A404FF6FF45E4
:101FB0002A400D8820E00000002C01400004004071
:101FC00000080040000C00400010004000140040D9
:101FD00000340140004C01400050014000540140D9
:101FE00000180040001C004000200040004001405C
:101FF00000440140004801404FF6FF7606EA0525FF
:102000002A434DF6FF752B400D8906EA05352B4313
:102010004D8806EA05352B43FA4DA84202D0FA4D09
:10202000A84208D14BF6FF752C408D894FF6FF76FC
:1020300006EA85152C4384808283CD88A0F8405021
:10204000038470BD828B4FF2FF331A408283828BF0
:102050004FF6FF7303EA01231A4382837047F0B5FA
:102060000C461546002200210026078C4EF6FF7C08
:1020700007EA0C070784828B018C4FF6FF7707EA8B
:10208000043640F6FF473A404FF6FF7707EA052748
:102090003A434FF6FF7707EA03373A43D94FB8423E
:1020A0000ED0D94FB8420BD0B0F1804F08D0D74FE7
:1020B000B84205D0D64FB84202D0D64FB84206D16A
:1020C0004DF6FF77394046F48057394305E047F62F
:1020D000FF57394044F48057394382830184F0BD6F
:1020E000828B4FF6F3731A408283828B0A4382837A
:1020F0007047F0B50C461546002200210026078CDB
:102100004FF6FF6C07EA0C070784828B018C4FF6B1
:10211000FF7707EA04264FF60C773A404FF6FF7731
:1021200007EA03172F433A43B64FB8420ED0B64FD3
:10213000B8420BD0B0F1804F08D0B44FB84205D0B0
:10214000B34FB84202D0B34FB84206D14FF6FF5753
:10215000394046F48077394305E04FF2FF57394064
:1021600044F48077394382830184F0BD028B4FF2BF
:10217000FF331A400283028B4FF6FF7303EA0123F9
:102180001A4302837047F0B50C4615460022002121
:102190000026078C4FF6EF7C07EA0C070784028BBA
:1021A000018C4FF6FF7707EA041640F6FF473A40E6
:1021B0004FF6FF7707EA03373A434FF6FF7707EA10
:1021C00005273A438F4FB8420ED08F4FB8420BD0FD
:1021D000B0F1804F08D08D4FB84205D08C4FB84237
:1021E00002D08C4FB84206D14FF6DF77394046F027
:1021F0001007394305E04FF65F77394044F0100788
:10220000394302830184F0BD028B4FF6F3731A4009
:102210000283028B0A4302837047F0B50C461546D1
:1022200000220021068C4FF6FE773E400684028B8A
:10223000018C4FF60C7632407E1C06EA03162E43C4
:102240003243704EB0420ED06F4EB0420BD0B0F160
:10225000804F08D06D4EB04205D06D4EB04202D0D6
:102260006C4EB04206D14FF6FD76314044F0010687
:10227000314305E04FF6F576314044F00106314335
:1022800002830184F0BD70B505460C465D48854269
:102290000ED05D4885420BD0B5F1804F08D05B4829
:1022A000854205D05A48854202D05A48854200D11D
:1022B00000E000BF208850B92389A28861882846A1
:1022C000FFF7ABFFE1882846FFF79EFF25E0208857
:1022D00004280AD12389A28861882846FFF753FF82
:1022E000E1882846FFF742FF17E0208808280AD136
:1022F0002389A28861882846FFF7FBFEE1882846EB
:10230000FFF7EEFE09E02389A28861882846FFF7DF
:10231000A6FEE1882846FFF795FE70BD2DE9F04145
:1023200005460C4600260127608808B9022600E011
:102330000026A088012801D1022700E0012720887B
:10234000A0B92389A28861882846FFF766FFE18843
:102350002846FFF759FF23893A4631462846FFF7BA
:1023600012FFE1882846FFF701FF13E02389A288C6
:1023700061882846FFF707FFE1882846FFF7F6FE49
:1023800023893A4631462846FFF747FFE188284629
:10239000FFF73AFFBDE8F0810A884B881A438B8823
:1023A0001A43CB881A430B891A434B891A438B89EA
:1023B0001A43A0F8442070474FF6FF718180002136
:1023C0000180C180418001727047002101804180FD
:1023D0008180C180018141818181C181704700215B
:1023E00001804180012181800021C18001817047ED
:1023F0000021018041808180C180018141818181F2
:1024000070470000002C01400034014000040040EF
:1024100000080040000C004021B1028842F0010297
:10242000028004E002884FF6FE731A400280704773
:1024300031B1B0F8442042F40042A0F8442005E055
:10244000B0F84420C2F30E02A0F8442070471AB13D
:1024500083890B43838102E083898B4383817047A7
:102460008182704741EA0203A0F8483070471AB1F0
:1024700083890B43838102E083898B438381704787
:1024800001894FF6F8721140018170470A46002118
:1024900001894FF68F73194011430181704730B5A0
:1024A00004460D4629462046FFF7F0FF208940F0FC
:1024B0000700208130BD2DE9F04104460D46164647
:1024C0001F46602D06D13B46012231462046FFF7CC
:1024D0005AFE05E03B46012231462046FFF79DFEAD
:1024E00029462046FFF7D2FF208940F007002081CF
:1024F000BDE8F08130B50C4600210189C9B24FF624
:10250000FF7505EA0325154325432943018130BDA5
:102510002DE9F04105460E461746984600244346ED
:102520003A4631462846FFF7E5FF2C894FF6F8700A
:10253000044044F007044FF68F70044044F07004E8
:102540002C81BDE8F081F0B504460D4616461F46C5
:102550003B46324629462046FFF7CCFF208940F40F
:1025600080402081F0BD0185828270470A460021AB
:1025700001884FF68F731940114301807047F0B501
:102580000C4615461E460021002200230189028BBD
:10259000038C4FF6F877394021434FF6FC473A4019
:1025A00040F201173A434FF6DD773B404FF6FF7795
:1025B00007EA06172F433B43018102830384F0BDE2
:1025C0000A460021018B4FF68F7319401143018396
:1025D00070470A460021018B48F6FF7319404FF6F9
:1025E000FF7303EA02231943018370470A4600215F
:1025F000818B4FF68F7319401143818370470A46D0
:102600000021818B48F6FF7319404FF6FF7303EAF0
:10261000022319438183704721B1028842F080026E
:10262000028004E002884FF67F731A4002807047F0
:1026300021B1828842F00402828004E082884FF651
:10264000FB731A408280704721B1828842F00802F1
:10265000828004E082884FF6F7731A4082807047C8
:1026600021B1828842F00102828004E082884FF624
:10267000FE731A40828070470A460021018B4FF694
:10268000F77319401143018370470A460021018BFB
:102690004FF2FF7319404FF6FF7303EA0223194309
:1026A000018370470A460021818B4FF6F77319406A
:1026B0001143818370470A460021818B4FF2FF73DB
:1026C00019404FF6FF7303EA0223194381837047D1
:1026D0000A460021018B4FF6FB7319401143018319
:1026E00070470A460021018B4FF6FF3319404FF621
:1026F000FF7303EA02231943018370470A4600214E
:10270000818B4FF6FB7319401143818370470A4652
:102710000021818B4FF6FF3319404FF6FF7303EA18
:1027200002231943818370470A460021018B4FF62B
:102730007F7319401143018370470A460021018BC2
:10274000C1F30E014FF6FF7303EA0223194301831D
:1027500070470A460021818B4FF67F731940114361
:10276000818370470A460021818BC1F30E014FF629
:10277000FF7303EA02231943818370470A4600214D
:10278000018C4FF6FD7319401143018470470A46CE
:102790000021018C4FF6F7731940114301847047F3
:1027A0000A460021018C4FF6DF7319404FF6FF7384
:1027B00003EA02131943018470470A460021018C81
:1027C0004FF67F7319404FF6FF7303EA0213194364
:1027D000018470470A460021018C4FF6FF531940CF
:1027E0004FF6FF7303EA02231943018470470A4638
:1027F0000021018C4FF2FF7319404FF6FF7303EA7B
:1028000002231943018470470A460021018C4DF6CA
:10281000FF7319404FF6FF7303EA02331943018433
:10282000704730B5002301248C40A3B2048C9C4334
:102830000484048C02FA01F5ADB22C43048430BD4B
:1028400030B5002304248C40A3B2048C9C43048440
:10285000048C02FA01F5ADB22C43048430BD70B58E
:102860000346002000241846183001258D40ACB2E4
:102870001D8CA5431D8409B1082909D100EB610015
:10288000056825F0700505600568154305600EE0D4
:102890000D1FC5F34E052844056825F4E045056085
:1028A00005684FF6FF7606EA02263543056070BDDF
:1028B00021B1028842F00202028004E002884FF651
:1028C000FD731A400280704721B1028842F0040271
:1028D000028004E002884FF6FB731A4002807047C2
:1028E00021B1828842F08002828004E082884FF623
:1028F0007F731A408280704702884FF6F7731A4040
:10290000028002880A430280704782884FF68F73E4
:102910001A40828082880A438280704702894FF67B
:10292000F8731A40028102890A43028170470289C2
:102930004FF67F731A40028102890A430281704771
:102940008184704781857047818670470187704711
:1029500081877047A0F84010704702884FF6FF4308
:102960001A40028002880A43028070470146888E1E
:1029700070470146088F70470146888F70470146AF
:10298000B1F8400070470146888C70470146088DB9
:10299000704702460020138A0B4201D0012000E05C
:1029A00000207047CA430282704730B502460020BB
:1029B00000230024158A05EA0103958905EA01042C
:1029C00013B10CB1012000E0002030BDCA430282E7
:1029D000704700000CB50020019000906B48006823
:1029E00040F480306949086000BF6848006800F41E
:1029F000003000900198401C0190009818B901988F
:102A0000B0F5A06FF1D16148006810F4003F02D02A
:102A10000120009001E0002000900098012842D1A0
:102A20005B48006840F0100059490860084600689B
:102A300020F0030008600846006840F002000860CB
:102A40005248406851494860084640684860084616
:102A5000406840F4806048600846406820F47C107C
:102A600048600846406840F4E8104860084600683E
:102A700040F08070086000BF4448006810F0007F9C
:102A8000FAD04248406820F00300404948600846B8
:102A9000406840F00200486000BF3C48406800F0D9
:102AA0000C000828F9D10CBD10B5FFF793FF10BD3D
:102AB00010B53648006840F0010034490860084607
:102AC0004068344908403149486008460068324946
:102AD00008402E4908600846006820F480200860FD
:102AE0000846406820F4FE0048604FF41F008860EC
:102AF000FFF7DAFF4FF000602849086010BD10B5FD
:102B0000002100200022214B5B6803F00C0121B161
:102B1000042906D0082928D107E0214B214C236045
:102B200027E01F4B1F4C236023E0184B5B6803F426
:102B30007010164B5B6803F48032022303EB904065
:102B400022B9194B4343174C23600DE00F4B5B68D0
:102B500013F4003F04D0144B4343124C236003E0B2
:102B60000F4B43430F4C236003E00D4B0D4C236090
:102B700000BF00BF054B5B68C3F303130B4CE15C64
:102B8000084B1B68CB40074C236010BD001002406F
:102B9000002002400000FFF8FFFFF6FE08ED00E015
:102BA00000127A000C06002000093D0010060020EB
:102BB000704770477047754600F028F8AE4605002C
:102BC0006946534620F00700854618B020B5FDF74A
:102BD0002BFBBDE820404FF000064FF000074FF000
:102BE00000084FF0000B21F00701AC46ACE8C0092B
:102BF000ACE8C009ACE8C009ACE8C0098D46704734
:102C00000446AFF300802046FDF7F9FA004870470C
:102C10002006002001491820ABBEFEE72600020076
:102C20007047344310100134431010014C2C00083D
:102C300000000020200600006C010008642F00083E
:102C40002006002060060000C80100080315FFFFF1
:102C50004A080121331818E5486C24122808242456
:102C6000247F12121204392F280C1C2A2A0A0C184D
:102C700028282A2A1C3611500C22251515152A58E9
:102C8000545454221A0C2930080A76252911916EC1
:102C9000C5060604034D4020101071251010204079
:102CA0002B02040A29015D08080402913D6B1C1CDB
:102CB0006B5C79A14A7FA3D1A95B0213FE43060690
:102CC0003D80404020743C040402604C18244201C2
:102CD0002A24F0195F4A0E905408083E1A3C1B192A
:102CE000326D0804427E10500920182040404222D4
:102CF0001C500C203028242422227E2020788F7E15
:102D00000202021A26202B38241089606C7E2222AF
:102D1000F379603A2485523C390B4E645840402484
:102D2000402913393A490649A449063308042A4080
:102D30009C870204081020405A7F0451491B392502
:102D400069701A460F6A10501D1C225A55016A2DCF
:102D5000B0500C0808181414243C224242E71E1FED
:102D60002222221E0E5442221F2D7C424201016962
:102D7000302A1F1C29015920B80C3F4212121E1282
:102D8000120242423F104C020207801B22223E5C8C
:102D9000712122402AE73C2A7E0549706B3E0801DA
:102DA0004A3E707A100133110F500C7722120A0E2E
:102DB0000A12122222771A075A39014A42F31B7764
:102DC00036012A2A01526B580CE346464A4A5252AF
:102DD00052626247F04A410159802A3F7B2A3E41B4
:102DE00049A059206E4D53321C60202A3E6F4B4241
:102DF000C79018084242020418204016516B7F49C0
:102E0000B099D039016A3C105009222424141418B6
:102E100008081B6B49015F55553622222220480ABB
:102E20002424181818242442E7C09D222214145088
:102E3000300C7E2120101008040442423F6A786D55
:102E4000290132781D020204040B10081010202002
:102E50002040409B1E1001221E031C384412FF4AD2
:102E60000695F150083C4278444242FC1F0302029E
:102E7000021A26CF93261A1B3844155344382D6066
:102E80004040402E9C4264D840567E0202423C3E66
:102E9000F08808087EAF923E38087C22221C023C53
:102EA000422229601B3A46405342E7230C0C9A0EFB
:102EB000301B30307019DD19011A22D13930500819
:102EC00072120A16122277492CC9602B7F92019246
:102ED000B79A3B6049A0290149A0412A1BE075220D
:102EE0001E020739D075447840E01C774C04018AF3
:102EF0001FC06E42023C404270197A398019A97194
:102F00002A635F9362DC9008E74224241408089047
:102F100008EB494955552222C80876241818182468
:102F20006E306C1808089030087E22100808447E25
:102F30002BC020013A10061320C0DA1001113A0606
:102F40008A192E29011206D40C32C2720A2D0102EE
:102F50000304041009060708090204060884A24AAB
:042F600004691800E8
:040000050800020DE0
:00000001FF
