:020000040800F2
:10000000800C0020CD010008390B00083B0B0008D4
:100010003F0B0008430B0008470B000800000000DE
:100020000000000000000000000000004B0B000872
:100030004D0B0008000000004F0B0008510B00089A
:10004000E7010008E7010008E7010008E7010008F0
:10005000E7010008E7010008E7010008E7010008E0
:10006000E7010008E7010008E7010008E7010008D0
:10007000E7010008E7010008E7010008E7010008C0
:10008000E7010008E7010008E7010008E7010008B0
:10009000E7010008E7010008E7010008E7010008A0
:1000A000E7010008E7010008E7010008E701000890
:1000B000E7010008E7010008E7010008E701000880
:1000C000E7010008E7010008E7010008E701000870
:1000D000E7010008E7010008E7010008E701000860
:1000E000E7010008E7010008E7010008E701000850
:1000F000E7010008E7010008E7010008E701000840
:10010000E7010008E7010008E7010008E70100082F
:10011000E7010008E7010008E7010008E70100081F
:10012000E7010008E7010008E7010008E70100080F
:1001300000F002F800F03AF80AA090E8000C8244BF
:100140008344AAF10107DA4501D100F02FF8AFF29C
:10015000090EBAE80F0013F0010F18BFFB1A43F0A5
:10016000010318474816000068160000103A24BF23
:1001700078C878C1FAD8520724BF30C830C144BF0C
:1001800004680C607047000000230024002500264E
:10019000103A28BF78C1FBD8520728BF30C148BFEA
:1001A0000B6070471FB51FBD10B510BD01F0C7FA39
:1001B0001146FFF7F7FF00F081FC01F0E5FA03B408
:1001C000FFF7F2FF03BC01F0E9FA0000094880479D
:1001D00009480047FEE7FEE7FEE7FEE7FEE7FEE729
:1001E000FEE7FEE7FEE7FEE704480549054A064B41
:1001F0007047000039160008310100088006002011
:10020000800C002080080020800800204FF47A71C4
:10021000484300BF0100A0F10100FBD1704708B5C1
:100220000121080200F0ACFF4FF48040ADF800005F
:1002300010208DF8030002208DF802006946FE4868
:1002400000F0E8FC08BD00B587B00121092000F0EE
:1002500097FF4FF40050ADF8040003208DF806001E
:1002600018208DF8070001A9F44800F0D3FC4FF4E2
:100270008040ADF8040003208DF8060018208DF8AA
:10028000070001A9ED4800F0C5FC4FF40040ADF8AF
:10029000040003208DF8060018208DF8070001A93E
:1002A000E64800F0B7FC0121880300F069FF002058
:1002B000ADF808004FF48270ADF80A000020ADF8E8
:1002C0000C000220ADF80E000120ADF81000400235
:1002D000ADF812000020ADF81400ADF816000720AC
:1002E000ADF8180002A9D64800F0D8FF0121D44883
:1002F00001F079F84FF48050ADF8040003208DF838
:10030000060010208DF8070001A9CC4800F082FCFF
:100310002020ADF8040003208DF8060010208DF891
:10032000070001A9C54800F075FC4020ADF80400A5
:1003300003208DF8060010208DF8070001A9BF48A2
:1003400000F068FC2021BD4800F00FFD4FF4805103
:10035000BA4800F00CFD07B000BD10B5044600BF60
:100360000221B74801F0C3F80028F9D02146B4486B
:1003700001F06AF800BF0121B14801F0B8F8002887
:10038000F9D0AF4801F062F8C0B210BD10B5044614
:100390004021AA4800F0E9FC2046FFF7DEFF10BD2F
:1003A00010B504464021A54800F0DFFCC4F3072047
:1003B000FFF7D3FFE0B2FFF7D0FF10BD10B5044642
:1003C00040219E4800F0D3FC2046FFF7C6FF10BD39
:1003D00070B504460D46E0B2FFF7F0FF2846FFF780
:1003E000DFFF70BD2DE9F04104460D4616461F465D
:1003F0002A20FFF7E3FFC4F30720FFF7C7FFE0B2AF
:10040000FFF7C4FFC6F30720FFF7C0FFF0B2FFF706
:10041000BDFF2B20FFF7D2FFC5F30720FFF7B6FF84
:10042000E8B2FFF7B3FFC7F30720FFF7AFFFF8B25B
:10043000FFF7ACFF2C20FFF7C1FFBDE8F08110B53E
:10044000CB20FFF7BBFF3920FFF7A0FF2C20FFF7E1
:100450009DFF0020FFF79AFF3420FFF797FF02204F
:10046000FFF794FFCF20FFF7A9FF0020FFF78EFFD3
:10047000C120FFF78BFF3020FFF788FFE820FFF750
:100480009DFF8520FFF782FF0020FFF77FFF782088
:10049000FFF77CFFEA20FFF791FF0020FFF776FFD0
:1004A0000020FFF773FFED20FFF788FF6420FFF7C0
:1004B0006DFF0320FFF76AFF1220FFF767FF81201F
:1004C000FFF764FFF720FFF779FF2020FFF75EFFBB
:1004D000C020FFF773FF2320FFF758FFC120FFF76D
:1004E0006DFF1020FFF752FFC520FFF767FF3E208A
:1004F000FFF74CFF2820FFF749FFC720FFF75EFFFB
:100500008620FFF743FF3620FFF758FF4820FFF70C
:100510003DFF3A20FFF752FF5520FFF737FFB1208C
:10052000FFF74CFF0020FFF731FF1820FFF72EFFE9
:10053000B620FFF743FF0820FFF728FF8220FFF7D0
:1005400025FF2720FFF722FFF220FFF737FF0020CB
:10055000FFF71CFF2620FFF731FF0120FFF716FFF2
:10056000E020FFF72BFF0F20FFF710FF3120FFF7F0
:100570000DFF2B20FFF70AFF0C20FFF707FF0E20CF
:10058000FFF704FF0820FFF701FF4E20FFF7FEFEF4
:10059000F120FFF7FBFE3720FFF7F8FE0720FFF7FB
:1005A000F5FE1020FFF7F2FE0320FFF7EFFE0E200E
:1005B000FFF7ECFE0920FFF7E9FE0020FFF7E6FE5B
:1005C000E120FFF7FBFE0020FFF7E0FE0E20FFF723
:1005D000DDFE1420FFF7DAFE0320FFF7D7FE11201F
:1005E000FFF7D4FE0720FFF7D1FE3120FFF7CEFE44
:1005F000C120FFF7CBFE4820FFF7C8FE0820FFF719
:10060000C5FE0F20FFF7C2FE0C20FFF7BFFE312012
:10061000FFF7BCFE3620FFF7B9FE0F20FFF7B6FE4E
:100620001120FFF7CBFE7820FFF7F0FD2920FFF720
:10063000C5FE2C2006E0000000200140000C014017
:1006400000380040FFF7BAFE10BD2DE9F041044626
:10065000271204F0FF0840F23F13EF220021084662
:10066000FFF7C0FE00250EE0002607E03846FFF742
:100670008DFE4046FFF78AFE701C86B2B6F5A07F5D
:10068000F4DB681C85B2F02DEEDBBDE8F08170B5BF
:1006900004460D462B46224629462046FFF7A2FE79
:1006A000FE480088FFF77CFE70BD2DE9F047044648
:1006B0000D4616461F46DDF820A03B463246294629
:1006C0002046FFF78FFEA8460EE0A14606E0504602
:1006D000FFF766FE09F101001FFA80F9B145F6DD6A
:1006E00008F101001FFA80F8B845EEDDBDE8F0879B
:1006F000F8B504460D46E94800886E1CB3B2661C86
:10070000B2B26E1EB1B2661E0090B0B2FFF7CDFF5E
:10071000F8BD2DE9FF4F85B081468A460020049040
:1007200003900798A0EB09050898A0EB0A06CDF8FE
:100730000890CDF804A0002D01DD012705E00DB9DA
:10074000002702E04FF0FF376D42002E02DD4FF030
:10075000010806E016B94FF0000802E04FF0FF383C
:100760007642B54201DD2C4600E034464FF0000BE6
:1007700021E0019A91B2029A90B2FFF788FF0498A3
:10078000284404900398304403900498A04205DD67
:100790000498001B04900298384402900398A042E9
:1007A00005DD0398001B03900198404401900BF174
:1007B00001001FFA80FB601C8345DADD09B0BDE84B
:1007C000F08F2DE9F04104460D4616461F462B4694
:1007D000324629462046FFF79CFF3B4622462946E3
:1007E0002046FFF796FF3B46324639462046FFF744
:1007F00090FF3B46324629463046FFF78AFFBDE868
:10080000F0812DE9F04706460F4690460024454604
:100810000320A0EB480948E03A1B91B2721B90B24A
:10082000FFF735FF3A1B91B2721990B2FFF72FFF15
:100830007A1991B2321B90B2FFF729FF3A1B91B29D
:10084000721B90B2FFF723FF7A1B91B2321B90B25A
:10085000FFF71DFF3A1991B2721990B2FFF717FF17
:100860007A1B91B2321990B2FFF711FF7A1991B247
:10087000321990B2FFF70BFF3A1991B2721B90B286
:10088000FFF705FF641CB9F1000F03DAA000801D1B
:10089000814404E0601B80000A3081446D1E7A1997
:1008A00091B2321990B2FFF7F2FEAC42B4DDBDE86E
:1008B000F0872DE9FF5F05460F461646AA467748A2
:1008C000B0F800B0E02D02DCB7F5987F01DDBDE89F
:1008D000FF9FA6F12000C6B207F10F03EA1D3946BB
:1008E0002846FFF77FFD039858BB002426E004EB61
:1008F00006106B4911F800904FF0000816E019F04F
:10090000010F03D06548A0F800B003E065480088F7
:100910006249088061480088FFF742FD4FEA690993
:10092000681C85B208F1010000F0FF08B8F1080F5B
:10093000E5DB5546781C87B2601CC4B2102CD6DBB0
:1009400020E000241CE004EB0610554911F800904B
:100950004FF000080FE019F0010F06D03A1991B2DC
:1009600005EB080290B2FFF792FE4FEA690908F121
:10097000010000F0FF08B8F1080FECDB601CC4B206
:10098000102CE0DB4548A0F800B000BF9FE710B591
:100990000246012000E050430B00A1F10104E1B246
:1009A000F9D110BD2DE9F0470646894617461D4688
:1009B0004FF0000ABFB200242FE0281B401EC1B236
:1009C0000A20FFF7E4FFB7FBF0F00A21B0FBF1F2D9
:1009D00001FB1208BAF1000F11D1681EA0420EDD12
:1009E000B8F1000F09D1082101FB046188B200238E
:1009F00020224946FFF75DFF0DE04FF0010A08F1A4
:100A00003001CAB2082101FB046188B200234946C3
:100A1000FFF74FFF00BF601CC4B2AC42CDDBBDE8A6
:100A2000F0872DE9F0470646894617461D46002403
:100A300019E0281B401EC1B20A20FFF7A8FFB7FB30
:100A4000F0F00A21B0FBF1F201FB120808F13001CD
:100A5000CAB2082101FB046188B200234946FFF7AE
:100A600028FF601CC4B2AC42E3DBBDE8F08770B580
:100A700005460E4614461DE0E02D03DD002506F177
:100A8000100086B2B6F5987F02DD002005460646C6
:100A9000227800233146284606E0000002000020AC
:100AA0002C00002000000020FFF703FF05F10800E4
:100AB00085B2641C20780028DED170BDFFF7C3FB2F
:100AC000FFF7ADFB4FF480411A4800F04EF94FF4A8
:100AD000FA70FFF79BFB4FF48041164800F047F98E
:100AE000FFF7ADFC4FF48041124800F03EF94AF6A2
:100AF000AA20FFF7AAFD4FF480410E4800F037F915
:100B000017E04FF480410B4800F02FF941F2883094
:100B1000FFF77CFB64231A4600210846FFF7F9FD26
:100B20004FF48041034800F022F942F21070FFF7C1
:100B30006DFBE6E700200140704700BFFEE700BF05
:100B4000FEE700BFFEE700BFFEE770477047704753
:100B50007047000010B50446CA48844208D10121FC
:100B6000042000F027FB0021042000F023FB46E0D6
:100B7000C548844208D10121082000F01BFB002158
:100B8000082000F017FB3AE0C048844208D1012158
:100B9000102000F00FFB0021102000F00BFB2EE0D6
:100BA000BB48844208D10121202000F003FB002132
:100BB000202000F0FFFA22E0B648844208D101214B
:100BC000402000F0F7FA0021402000F0F3FA16E090
:100BD000B148844208D10121802000F0EBFA0021C5
:100BE000802000F0E7FA0AE0AC48844207D10121F6
:100BF000801500F0DFFA0021A01500F0DBFA10BD2F
:100C000010B50121084600F0D5FA0021012000F0BE
:100C1000D1FA10BD2DE9F041024600250026002042
:100C200000230024002791F803C00CF00F0591F871
:100C300003C01CF0100F03D091F802C04CEA050568
:100C400091F800C0BCF1000F31D0146800202BE0F7
:100C50004FF0010C0CFA00F3B1F800C00CEA0306E7
:100C60009E4220D183004FF00F0C0CFA03F7BC43D7
:100C700005FA03FC4CEA040491F803C0BCF1280F08
:100C800006D14FF0010C0CFA00FCC2F814C00AE0C7
:100C900091F803C0BCF1480F05D14FF0010C0CFADC
:100CA00000FCC2F810C0401C0828D1D31460B1F871
:100CB00000C0BCF1FF0F34DD546800202EE000F1CD
:100CC000080C4FF0010808FA0CF3B1F800C00CEA68
:100CD00003069E4221D183004FF00F0C0CFA03F75C
:100CE000BC4305FA03FC4CEA040491F803C0BCF1D0
:100CF000280F05D100F1080C08FA0CF8C2F814808E
:100D000091F803C0BCF1480F07D100F1080C4FF077
:100D1000010808FA0CF8C2F81080401C0828CED34D
:100D20005460BDE8F0814FF6FF71018002218170AF
:100D30000421C17070470246002093680B4201D025
:100D4000012000E0002070470146886880B27047AB
:100D500002460020D3680B4201D0012000E00020B1
:100D600070470146C86880B27047016170474161B1
:100D700070470AB1016100E041617047C16070478E
:100D80004FF480320A4382618161826182698269A3
:100D9000704702460020424B18684FF68073184097
:100DA00040EA021008433E4B186070473D49C86155
:100DB0007047F0B50A46002300240021002500F00A
:100DC0000046B6F1004F02D1354EF16901E0344ED4
:100DD0007168C0F3034583B200F44016B6F5401FB6
:100DE00008D121F070612E4E766826F070662C4F87
:100DF0007E6012E000F48016B6F5801F06D103264F
:100E000006FA05F4A14341F0706106E0460D360193
:100E100003FA06F6B14341F0706122B1460D360186
:100E200003FA06F6314300F00046B6F1004F02D156
:100E30001B4EF16101E01A4E7160F0BD30B5002229
:100E40008B071C0F0F2303FA04F2154B08338C1089
:100E500053F824309343124C08348D1044F8253055
:100E600023468C1053F824308C07240F00FA04F426
:100E700023430B4C08348D1044F8253030BD0A490B
:100E80000860704700080140000C0140001001405C
:100E90000014014000180140001C014000200140E6
:100EA0000000014000002042DC002042DD480068D4
:100EB00040F00100DB49086008464068DA49084014
:100EC000D849486008460068D8490840D5490860B4
:100ED0000846006820F4802008600846406820F436
:100EE000FE0048604FF41F0088607047CD490968D4
:100EF00021F48031CB4A11601146096821F4802128
:100F00001160B0F5803F03D0B0F5802F0ED106E020
:100F1000C449096841F48031C24A116007E0C149FF
:100F2000096841F4A021BF4A116000E000BF00BF82
:100F3000704710B501460022002300204A11012A03
:100F400002D1B84C236806E0022A02D1B54C236ACC
:100F500001E0B44C636A01F01F02012494401C427A
:100F600001D0012000E0002010BD38B50020009025
:100F70000024002500BF3120FFF7DBFF0546009865
:100F8000401C00900098B0F5A06F01D0002DF2D069
:100F90003120FFF7CEFF08B1012400E000242046F5
:100FA00038BD014600209F4A106820F0F80040EA52
:100FB000C100106070479E490860704702460020DB
:100FC000984B586820F47C1042EA01031843954B73
:100FD0005860704796490866704701460020914A5C
:100FE000506820F003000843506070478D48406807
:100FF00000F00C007047014600208A4A506820F03B
:10100000F00008435060704701460020854A506850
:1010100020F4E06008435060704701460020814A98
:10102000506820F4605040EAC1005060704729B118
:101030007C4A527A02437B4B5A7204E0794A527AD4
:101040008243784B5A7270477A490860704701466C
:101050000020744A506820F44040084350607047B4
:101060000021754A11706F4A82F82010012802D0C1
:10107000042808D103E001216F4A117004E0052122
:101080006D4A117000E000BF00BF70476B490860F7
:1010900070476449096A0143624A116270476749AF
:1010A00044390860704730B5002100220024002335
:1010B0005C4D6D6805F00C0121B1042905D00829AB
:1010C00023D105E05E4D056022E05D4D05601FE027
:1010D000544D6D6805F47012524D6D6805F48034FE
:1010E000022505EB92421CB9564D554305600BE0B5
:1010F0004C4D6D6815F4003F03D0524D55430560CB
:1011000002E04F4D5543056002E04D4D056000BFC4
:1011100000BF444D6D6805F0F00109094A4D6B5C54
:101120000568DD4045603F4D6D6805F4E061090AE2
:10113000454D6B5C4568DD4085603A4D6D6805F452
:101140006051C90A404D6B5C4568DD40C560354D56
:101150006D6805F44041890B3C4D6B5CC568B5FB7F
:10116000F3F5056130BD29B12E4A526902432D4B7A
:101170005A6104E02B4A526982432A4B5A617047F4
:1011800029B1284A92690243264B9A6104E0254A14
:1011900092698243234B9A61704729B1214AD269EF
:1011A0000243204BDA6104E01E4AD26982431D4BA0
:1011B000DA61704729B11B4AD2680243194BDA60E1
:1011C00004E0184AD2688243164BDA60704729B1AE
:1011D000144A12690243134B1A6104E0114A12695E
:1011E0008243104B1A6170471449403908607047B8
:1011F0000F49C86470470B49C87170470948406A75
:1012000040F0807007494862704701460020054A57
:1012100092680A4201D0012000E000207047014995
:1012200088727047001002400000FFF8FFFFF6FED2
:1012300000004242D8004242201002408004424254
:1012400000127A0000093D00040000201400002074
:1012500010B50446BE48844208D101218014FFF72E
:10126000A9FF0021A014FFF7A5FF16E0B9488442AA
:1012700008D101210014FFF7AAFF00212014FFF775
:10128000A6FF0AE0B448844207D10121C013FFF74A
:101290009EFF0021E013FFF79AFF10BD10B500225A
:1012A000028802F441520B884C8823438C882343E4
:1012B000CC8823430C8923434C8923438C892343C3
:1012C000CC8923431A430280838B4FF2FF7423405F
:1012D00083830B8A038210BD2DE9F04F85B005464C
:1012E0000C464FF0000902274FF000084FF0010BA9
:1012F0000026B246A88B4FF240010840A883022086
:101300002884B5F81C90A068022801D100BF38E0FD
:10131000A08810B94FF0010B01E04FF0020B8D488F
:10132000854200D100E000BF6846FFF7BCFEDDF853
:1013300000A0E088B0F5007F0AD14FEA1A2000EB48
:1013400080004000A168B0FBF1F0401D86B20BE0C8
:101350004FEA4B10BAFBF0F000EB80004000A168B0
:10136000B0FBF1F0401D86B20A20B6FBF0F606F0A5
:101370000108A6EB0800C0F34F074FF6FF7000EA24
:101380000828022F01DBFF2F02DD02274FF00008A3
:10139000E08840EA080038432884A088A1890843EF
:1013A000618808432188084340F4006040EA090945
:1013B000A5F81C9005B0BDE8F08F002101804180A8
:1013C0008180C180018141818181C18107210182A8
:1013D00070470021018041808180C18002218160AD
:1013E00000218181704721B1028842F040020280D1
:1013F00004E002884FF6BF731A400280704721B1A3
:10140000828B42F48062828304E0828B4FF6FF334A
:101410001A408283704730B5002400230C11012547
:10142000A540ABB21AB185881D43858002E085884E
:101430009D43858030BD1AB183880B43838002E0D1
:1014400083888B43838070478181704701468889F8
:101450007047A1F57E42FF3A04D0028842F48072C0
:10146000028004E002884FF6FF631A400280704752
:1014700021B1828842F00402828004E082884FF623
:10148000FB731A408280704702884FF2FF731A4044
:10149000028002880A4302807047018841F480512B
:1014A0000180704721B1028842F40052028004E0BA
:1014B00002884DF6FF731A400280704702460020F2
:1014C000012901D0108B00E0908A70470146088AFC
:1014D0007047B1F5804F04D1028842F48042028007
:1014E00004E002884BF6FF731A4002807047024600
:1014F000002013890B4201D0012000E0002070473A
:10150000CA4302817047F0B5024600200024002340
:10151000002501F00F070126BE40B4B20B110126D1
:101520009E40B3B2968806EA03051689264202D089
:101530000DB1012000E00020F0BD10B5002201F047
:101540000F040123A3409AB2D343038110BD0000CE
:101550000030014000380040003C00400CB5002045
:10156000019000906B48006840F480306949086041
:1015700000BF6848006800F4003000900198401CEB
:101580000190009818B90198B0F5A06FF1D16148A9
:10159000006810F4003F02D00120009001E000201C
:1015A00000900098012842D15B48006840F010008C
:1015B000594908600846006820F0030008600846A2
:1015C000006840F002000860524840685149486095
:1015D0000846406848600846406840F480604860BB
:1015E0000846406820F47C1048600846406840F493
:1015F000E81048600846006840F08070086000BF4E
:101600004448006810F0007FFAD04248406820F05B
:101610000300404948600846406840F002004860C6
:1016200000BF3C48406800F00C000828F9D10CBD10
:1016300010B5FFF793FF10BD10B53648006840F0B5
:10164000010034490860084640683449084031497F
:10165000486008460068324908402E49086008463C
:10166000006820F4802008600846406820F4FE00EE
:1016700048604FF41F008860FFF7DAFF4FF000600A
:101680002849086010BD10B5002100200022214B20
:101690005B6803F00C0121B1042906D0082928D188
:1016A00007E0214B214C236027E01F4B1F4C236098
:1016B00023E0184B5B6803F47010164B5B6803F46F
:1016C0008032022303EB904022B9194B4343174C5D
:1016D00023600DE00F4B5B6813F4003F04D0144B04
:1016E0004343124C236003E00F4B43430F4C2360F2
:1016F00003E00D4B0D4C236000BF00BF054B5B6842
:10170000C3F303130B4CE15C084B1B68CB40074C45
:10171000236010BD00100240002002400000FFF8CE
:10172000FFFFF6FE08ED00E000127A00180000202E
:1017300000093D001C000020704770477047754647
:1017400000F028F8AE4605006946534620F0070031
:10175000854618B020B5FEF747FDBDE820404FF0A4
:1017600000064FF000074FF000084FF0000B21F08B
:101770000701AC46ACE8C009ACE8C009ACE8C00958
:10178000ACE8C0098D4670470446AFF300802046A0
:10179000FEF715FD004870471C060020014918207F
:1017A000ABBEFEE72600020070470000CC17000821
:1017B000000000202C0000006C010008F817000851
:1017C0002C000020540C000088010008FFFF0000DE
:1017D00000000000010203040102030406070809D7
:1017E0000204060800A24A040000000000000000F5
:0817F0000102030406070809C9
:04000005080001CD21
:00000001FF
